:400000000080002011000000BD060000BD06000080B500AF024A034B1B68136000F080FBBC760040FA46004010B5054C237833B9044B13B10448AFF300800123237010BD16
:40004000B081FF1F00000000A4390000084B10B51BB108490848AFF300800848036803B910BD074B002BFBD0BDE81040184700BF00000000B481FF1FA4390000C880FF1F78
:400080000000000080B582B000AF62B602F078FD632002F009FE322002F016FE0121002000F0D4FB002002F02FFE0F4800F024F800F042F80D4B1B78012BF9D13B1D1A4671
:4000C0000B490C4802F0C2FE0346012B04D17B68DBB2184602F0F8FD064800F00DF8034B00221A70E4E700BFD080FF1FDC81FF1FA83900005082FF1F80B582B000AF786038
:4001000000BF00F0EBFF0346002BFAD07B683F3300221A707B683E3321221A70786802F0C9FE03469BB21946786800F073FF00BF0837BD4680BD00BF80B582B000AF2B4B6D
:400140001B78002B0AD100F025FD0346002B49D000F00CFF254B01221A7043E000F0ACFF0346002B3ED000F0CBFF0346FB71FB790D2B02D0FB790A2B10D11D4B1B881A460D
:400180001C4B002199541B491B4802F08BFE184B00221A80194B01221A7023E0FB79082B02D0FB797F2B0AD1114B1B88002B06D00F4B1B88013B9AB20D4B1A8012E00C4B23
:4001C0001B883E2B03D9212000F05AFF0AE0084B1B885A1C91B2064A11801946054AFB795354FFE700BF0837BD4680BDDE81FF1FE081FF1FF081FF1F5082FF1FDC81FF1F30
:4002000080B582B000AF786039603A680021786802F013FE00BF0837BD4680BD80B584B000AFF860B9607A607A68B968F86802F0F9FD00BF1037BD4680BD00BF80B483B039
:4002400000AF0346FB71FEE780B487B000AF7860396000233B6100237B6127E07B699B007A6813441B68BB60BB68FB73BB6823F0FF03BB6014E03B695B003A6813441B782C
:400280001A46BB68134419463B695B003A6813445B780B703B6901333B61FB7B013BFB73FB7B002BE7D17B6901337B617B692A2BD4D900BF1C37BD4680BC704780B582B089
:4002C00000AF3D4B04221A803C4B18221A703C4B3A221A803B4B18221A703B4B81221A803A4B18221A703A4B00221A80394B1B221A70394B41F26F721A80384B18221A70E4
:40030000374B06221A70374B52221A70364B374A1278D2B21A70364B40F619121A80354B41F251221A800023FB7019237B6014E0FB785B00DAB2304B1B78DBB203F00103AE
:40034000DBB21343DBB203F00303FB704FF4F07002F0EAFC7B68013B7B607B68002B02D0FB78032BE4D17B68002B02D10320FFF765FF224B4FF480721A80204B07221A7046
:400380001F4B00221A701F4B48221A701B4B00221A701D4B00221A701C4B02221A701C4A1B4B1B78DBB243F01F03DBB2137000BF0837BD4680BD00BF80400040824000403E
:4003C0008440004086400040884000408A4000408C4000408E40004090400040924000400043004000420040A14600400F01004922420040204200402542004004400040AF
:4004000006400040084000400940004001400040A243004080B582B000AF244B1B78FB71234B1B78BB71234B1B787B71224AFB7903F00703DBB21370204AFB791B09DBB265
:4004400013701B4ABB7943F00303DBB21370194A7B7943F00303DBB21370194BE0221A70184BF4221A70184B40221A70174B40221A70174BE0221A70164B4F221A70164B3C
:4004800020221A70154B40221A700A2002F0B6FA084A7B791370064ABB791370104B44221A7000BF0837BD4680BD00BFCF010049F8460040F94600406E5800406F5800401D
:4004C0000D5100401D510040095900400B590040005B0040285B00402B5B0040585B00407658004080B586B000AF72B6574B61221A70FFF7E3FE554B01221A70544A544BF3
:400500001B78DBB243F00403DBB213700023FB7513E0FA7D13465B0013445B004D4A13443B613B691A683B699B889BB219461046FFF766FEFB7D0133FB75FB7D072BE8D994
:400540000023FB751CE0FA7D13469B0013445B00414A1344FB60FB681B68BB60FB685B687B60FB681A7A5B7A1B0213437B807B881A467968B868FFF751FEFB7D0133FB7591
:40058000FB7D012BDFD935494FF09040FFF75CFE04213348FFF734FE042232493248FFF73DFE324B324A1A60324A324B1B78DBB243F00203DBB213702F4A2F4B1B78DBB207
:4005C00043F00203DBB213702C4A2C4B1B78DBB243F04003DBB21370294A294B1B78DBB243F01003DBB21370082226492648FFF715FE082225492648FFF710FE0A2225490F
:400600002548FFF70BFE082224492548FFF706FE0A2224492448FFF701FE082223492448FFF7FCFD234A234B1B78DBB243F00803DBB21370FFF7EEFE0E2210491E48FFF755
:40064000EDFD00BF1837BD4680BD00BF00480040E8460040B0390000E0390000AC00004800760040E80F00480876004058040140040400840350014013500140A043004060
:40068000C2430040B00F004802510040B80F0048C2510040C00F0048F0510040CC0F004812510040D40F004820510040E00F00483251004022430040B043004080B500AF09
:4006C00002F084FB03461B680C2B00D1FEE7FEE780B584B000AF78600F4B1A687B6813441A460E4BD31A802B09DC0B4B1B68FB60094B1A687B681344074A136007E002F0CE
:4007000065FB02460C2313604FF0FF33FB60FB6818461037BD4680BD1081FF1FB083FF1F80B586B000AF224B7B61224B3B61204B7B6135E03B691B68FB603B695B68BB608F
:400740003B699B683B6000237B600CE0FB681A68BB681A60BB680433BB60FB680433FB607B6804337B607A683B689A42EED13B69DB683B6000237B6008E0BB6800221A6025
:40078000BB680433BB607B6804337B607A683B689A42F2D13B6910333B617B69013B7B617B69002BC6D102F017FBFFF76BFCFEE701000000583D000080B582B000AF194B30
:4007C000194A1A60194A194B1B6843F40073136000237B600FE07B68032B04D8144A7B6852F8233000E0134B13497A6841F822307B6801337B607B682F2BECD90F4B1B7815
:40080000DAB20F4B1A700F4B0B4A1A60FFF76AFE02F0BAF80C4B00221A6000BF0837BD4680BD00BF0CED00E00004FA0514ED00E000000000BD0600000080FF1FBC7600409D
:40084000C480FF1F08ED00E0C080FF1F80B582B000AF03460A46FB711346BB71094B1B78002B04D100F010F8064B01221A70BA79FB791146184600F0D9F800BF0837BD4648
:4008800080BD00BFE281FF1F80B582B000AF02F053FA0346FB71544A534B1B78DBB243F00103DBB21370514A504B1B78DBB243F00103DBB213704E4B01221A704D4B02226F
:4008C0001A704D4A4C4B1B78DBB203F07F03DBB21370002002F092F8484A484B1B78DBB223F00603DBB21370454A454B1B78DBB223F02003DBB21370404A404B1B78DBB2D4
:4009000043F00103DBB21370012002F077F8282002F074F83B4A3B4B1B78DBB203F07F03DBB21370374A374B1B78DBB223F04003DBB21370314A314B1B78DBB243F00203C0
:40094000DBB21370022002F059F82C4A2B4B1B78DBB243F00403DBB213702B4B00221A702A4B00221A70FB79184602F0E9F90721172002F07FF82649172002F053F80721F0
:40098000182002F077F82349182002F04BF80721152002F06FF82049152002F043F80721012002F067F81D49012002F03BF80721022002F05FF81A49022002F033F80721A1
:4009C000032002F057F81749032002F02BF807210C2002F04FF814490C2002F023F800BF0837BD4680BD00BFA5430040B54300409D600040096000401060004094430040CE
:400A000012600040F85100408460004085600040D9180000C1110000CD180000E51700002D18000079180000E518000080B582B000AF03460A46FB711346BB712E4AFB792F
:400A400013702E4B00221A702D4B00221A702D4B00221A702C4B00221A702C4B00221A702B4B00221A702B4B00221A702A4B4FF400021A60284B4FF080721A60264B4FF4F6
:400A800000121A60244B02221A60234B04221A60214B08221A60BB79002B02D0012B09D011E01E4A1D4B1B78DBB223F00103DBB2137011E0194A194B1B78DBB243F0010332
:400AC000DBB2137008E0154A144B1B78DBB243F00103DBB2137000BF114B03221A70114B80221A70012002F01FF90F4B04221A7000BF0837BD4680BDE982FF1FEC82FF1FFF
:400B00000883FF1F0B83FF1F0083FF1F0A83FF1F0D83FF1FE882FF1F00E100E00960004028600040086000401260004080B400AF0F4B00221A700F4B00221A700E4B0022E8
:400B40001A700E4B00221A700D4B00221A700D4B00221A700C4B00221A700C4B03221A700B4B80221A7000BFBD4680BC704700BFEC82FF1F0883FF1F0B83FF1F0083FF1F5D
:400B80000A83FF1F0D83FF1FE882FF1F286000400860004080B400AF034B1B78DBB21846BD4680BC704700BF0B83FF1F80B483B000AF0346FB71FA79064913465B0013443C
:400BC0009B000B4401331B78DBB218460C37BD4680BC70471083FF1F80B485B000AF0346FB710023FB81FB79002B1CD0FB79082B19D8104AFB791B0113441B78DBB29BB232
:400C000003F00F03FB81FB891B029AB20949FB791B010B4401331B78DBB29BB21343FB81FB89023BFB81FB8918461437BD4680BC704700BFFC5F0040B0B485B000AF034657
:400C40003960FB711346BB80FB79002B6DD0FB79082B6AD8B988FA79364813465B0013449B00034406331B889BB2C3F5007399420CD9FA792F4913465B0013449B000B4403
:400C800006331B889BB2C3F50073BB802A4CF979BB881B0A9BB2D8B2FA79264D13465B0013449B002B4403331B78DBB20343DAB20B0123441A70204AFB79B988C9B21B01A8
:400CC000134401330A461A703B68002B13D00023FB810CE01948FB79FA8939680A4412781B01034408331A70FB890133FB81FA89BB889A42EED3FA790E4913465B001344EE
:400D00009B000B44013300221A700B48F979FA79084C13465B0013449B00234405331B78DAB20B01034402331A7000BF1437BD46B0BC70471083FF1FFC5F0040706000405B
:400D400080B584B000AF03463960FB711346BB803B68002B30D0FB79002B2DD0FB79082B2AD8FB791846FFF737FF03461A46BB88934205D9FB791846FFF72EFF034600E0AB
:400D8000BB88BB800023FB810DE0FB893A6813440D49FA7912010A4408321278D2B21A70FB890133FB81FA89BB889A42EDD3FB79184600F00BF801E00023BB80BB88184675
:400DC0001037BD4680BD00BF7060004090B482B000AF0346FB71FB79002B1CD0FB79082B19D8FA790E4913465B0013449B000B44013300221A700B48F979FA79084C13461C
:400E00005B0013449B00234405331B78DAB20B01034402331A7000BF0837BD4690BC70471083FF1FFC5F004080B582B000AF0023FB71314B1B79DBB2184600F067F803460D
:400E4000BB712D4B1B78DBB25BB2002B15DA2A4B5B78DBB2212B00D048E0284B07221A80BA791346DB009B1A254A1344234A536000F020FB0346FB7138E01F4B5B78DBB294
:400E8000202B02D0222B1AD030E01C4B07221A80BA791346DB009B1A194A1344174A5360BB79BA7917498A5CD2B242F00102D1B2144AD15400F07CFB0346FB7116E0BB7908
:400EC0000D4A9278D2B291B20F4A22F81310BB79BA790C498A5CD2B242F00202D1B2094AD15400F003FC0346FB7100BFFB7918460837BD4680BD00BF00600040F482FF1F36
:400F00001481FF1FD082FF1FE482FF1F80B485B000AF0346FB710023FB73FF23BB7317E0FB7B104AD35C7B737A7B0F4913465B0013449B000B440A331B78DBB2FA799A428A
:400F400003D1FB7BBB730223FB73FB7B0133FB73FB7B012BE4D9BB7B18461437BD4680BC704700BFD882FF1F1083FF1F80B582B000AF0023BB71224B00221A70214B002226
:400F80001A70204B00225A700023FB7110E0FB791D4AD35C7B717B79002B06D07B79082B03D87B791846FFF711FFFB790133FB71FB79012BEBD9154B1B78DBB2002B18D081
:400FC000114B1B78DBB2002B13D0114B1B78DBB2002B0ED00D4B1B78DBB2082B09D80A4B1B78DBB2082B04D8094B1B78DBB2082B01D90123BB71BB7918460837BD4680BDF0
:40100000E381FF1FD082FF1FDC82FF1FD482FF1FD882FF1F80B584B000AF78600B467B80144B1B781A46144B9B5CFB73FA7B134913465B0013449B000B4408331B889BB213
:401040007A889A420CD9FA7B0C4913465B0013449B000B4408331B887B80002001F0C2FC7A88FB7B79681846FFF7E6FD00BF1037BD4680BDE381FF1FD482FF1F1083FF1FC9
:4010800080B584B000AF0346FB71FB79FB73084B1B781A46074B9B5CDBB207F10F0101221846FFF7C9FD00BF1037BD4680BD00BFE381FF1FD482FF1F80B500AF054B1B785E
:4010C0001A46054B9B5CDBB21846FFF76FFD0346184680BDE381FF1FDC82FF1F80B500AF054B1B781A46054B9B5CDBB21846FFF75DFD0346184680BDE381FF1FD482FF1F97
:4011000080B582B000AF084B1B781A46074B9B5CFB71B91DFB7901221846FFF711FEBB7918460837BD4680BDE381FF1FDC82FF1F80B485B000AF78600B46FB701346BB708F
:401140007B68DB7803F00303FB737B689B785BB2002B1ADAFB7B032B0AD0BB7803F001031449FA78CA54BB7843F00103BB701BE0BB789B08DBB203F001030F49FA78CA5449
:40118000BB7843F00403BB700EE0FB7B032B0BD0BB785B08DBB203F001030849FA78CA54BB7843F00203BB70BB7818461437BD4680BC7047D482FF1FD882FF1FDC82FF1F5F
:4011C00080B582B000AF374B1B78BB71BB7903F01003002B62D00123FB7197F90630002B12DABB7903F00F03012B02D00023FB711CE000F061F82C4B1B78DBB25BB2002BBA
:4012000014DA0023FB7111E0BB7903F04003002B02D000F095F809E0BB7903F02003002B02D000F0B3F801E00023FB71FB79002B34D01C4B1B78BB7197F90630002B2DDB5F
:401240001A4B1B78DAB21A4B1B78DBB21343BB71184ABB791370174B1B78DBB2BA799A421CD1114B1B78FB710E4B1B78DBB223F07F03BB71BB79002B0AD10A4B0A4A12784A
:40128000D2B21A70074B1B78DBB203F00F03FB71054B1B78DBB2FA799A42E2D100BF0837BD4680BD286000400983FF1F7E83FF1F0C83FF1F2960004080B582B000AF1D4B08
:4012C0001B78FB711B4AFB7913701A4B1B78FB7197F90730002B03DA174AFB79137025E0022000F045FA154B1B78DBB203F06003202B08D0402B0BD0002B0ED100F0F8FA87
:401300000346FB710CE001F01FFD0346FB7107E001F000FB0346FB7102E00023FB7100BFFB79002B02D1044B03221A7000BF0837BD4680BD286000400983FF1F00600040D2
:4013400080B500AF104B1B78DBB2062B19D801A252F823F08313000083130000711300008313000077130000831300007D13000000F0F8F806E000F0A7F903E000F0D2F902
:4013800000E000BF00BF80BDEC82FF1F80B500AF124B1B78DBB2062B1DD801A252F823F0D7130000D7130000BD130000D7130000C3130000D7130000C913000000F0D8F895
:4013C0000AE000F027F907E0032000F0D1F9044B03221A7000E000BF00BF80BDEC82FF1F0983FF1F80B483B000AF0023FB71294B1B78DBB29AB2284B1B889BB213449AB2D5
:40140000254B1A8015E02549FB79254A52681278D2B2CA54224B5B680133214A5360FB790133FB711E4B1B889BB2013B9AB21C4B1A801B4B1B889BB2002B02D0FB79072B05
:40144000E1D9144B1B78DBB2082B02D0FB79002B0FD0144B1B78DBB283F07F03DB43DAB2104B1A70104B0F221A70104B02221A7005E00D4B02221A700C4B02221A700C4A48
:40148000FB791370034AFB79137000BF0C37BD4680BC7047E882FF1FEA82FF1F00600040F482FF1F7E83FF1F0983FF1FEC82FF1F0C83FF1F80B582B000AF164B1B889BB24A
:4014C000002B02D100F02EF81EE0134B02221A70124B00221A7000F06BF9114BDB79DBB29BB21B029AB20E4B9B79DBB29BB21343FB80084B1B889BB2FA889A4202D2054AA2
:40150000FB881380FFF76EFF012318460837BD4680BD00BFF482FF1FEC82FF1F7E83FF1F0060004080B400AF094B02221A70094B80221A70084B0F221A70084B00221A7021
:40154000074B00221A7001231846BD4680BC7047EC82FF1F7E83FF1F0983FF1FE882FF1F0C83FF1F80B500AFFFF73CFF00BF80BD80B500AF0A4B1B78DBB29AB2094B1B88BE
:401580009BB213449AB2074B1A80074B00221A70012000F0EDF8054B03221A7000BF80BDE882FF1FEA82FF1FEC82FF1F0983FF1F80B582B000AF124B04221A70114B8022F7
:4015C0001A7000F0F5F8104BDB79DBB29BB21B029AB20D4B9B79DBB29BB21343FB800B4B1B889BB2FA889A4202D2084AFB881380074B0B221A70012318460837BD4680BD91
:40160000EC82FF1F7E83FF1F00600040F482FF1F0983FF1F80B483B000AF0023BB71234B1B78DBB203F00F03DBB2023BFB71FB799AB21F4B1B889BB213449AB21C4B1A8035
:4016400018E01C4B5B681C49BA798A5CD2B21A70184B5B680133174A5360BB790133BB71FB79013BFB71134B1B889BB2013B9AB2104B1A800F4B1B889BB2002B02D0FB7918
:40168000002BDED10D4AFB7913700D4B1B78DBB283F07F03DB43DAB2094B1A70094B0B221A7000BF0C37BD4680BC704729600040EA82FF1FF482FF1F006000400C83FF1FD6
:4016C0007E83FF1F0983FF1F80B500AF054B00221A70012000F04CF8034B03221A7000BF80BD00BFEC82FF1F0983FF1F80B400AF084B06221A70084B06221A70074B80221D
:401700001A70074B00221A7001231846BD4680BC704700BFEC82FF1F0983FF1F7E83FF1F0C83FF1F80B500AF0D4B1B78DBB2002B0AD00C4A0A4B1B78DBB263F07F03DBB25A
:401740001370074B00221A70074B00221A70012000F00EF8054B03221A7000BF80BD00BF0A83FF1F08600040EC82FF1F0983FF1F80B483B000AF0346FB710B4B9B68002B41
:401780000CD0094B9B68FA791A70074B9B68074A128892B25A80044B00229A6000BF0C37BD4680BC704700BFF482FF1FEA82FF1F80B400AF094B00221A80094B9B68002BE6
:4017C00007D0074B9B6800221A70054B9B6800225A8000BFBD4680BC704700BFEA82FF1FF482FF1F80B400AF0D4B01221A700D4B9B7C0D4B1B7BDBB203F00303012B08D061
:40180000094BDB7BDBB283F07F03DB43DAB2064BDA73054B01225A7300BFBD4680BC70470B600040FC5F00401083FF1F80B400AF0E4B02221A700E4B93F822300D4B1B7E37
:40184000DBB203F00303012B08D00A4BDB7EDBB283F07F03DB43DAB2064BDA76054B01225A7600BFBD4680BC704700BF0B600040FC5F00401083FF1F80B400AF104B042251
:401880001A70104B93F832300F4B93F82430DBB203F00303012B0AD00B4B93F82730DBB283F07F03DB43DAB2074B83F82720064B012283F8252000BFBD4680BC704700BF71
:4018C0000B600040FC5F00401083FF1F80B400AF00BFBD4680BC704780B500AFFFF726F900BF80BD80B500AF01F03EF800BF80BD80B586B000AF0023FB759D4B1B78FB71C9
:4019000000233B619B4B00221A8097F90730002B80F20481964B5B78DBB20A2B00F21B8201A252F823F000BF731A0000571D0000571D0000571D0000571D0000571D0000C8
:4019400055190000571D0000E71A0000571D0000FD1A0000864BDB78DBB2012B0ED100F049FEB860BB685B68824A5360814B12221A80FFF79FFD0346FB75EEE17C4BDB78BB
:40198000DBB2022B25D17A4B9B78DBB2184600F009FEB860BB68002B00F0DF81BB685B68744A5360734B5B6803331B78DBB29BB21B029AB26F4B5B6802331B78DBB29BB204
:4019C00013439AB26B4B1A80FFF774FD0346FB75C3E1674BDB78DBB2032B45D10023FB73654B3B6109E03B691B78BB71BB793A6913443B61FB7B0133FB735D4B9B78DBB208
:401A0000FA7B9A4204D23B691B78DBB2002BEAD1574B9B78DBB2EE2B01D1584B3B61544B9B78DBB2002B0BD0514B9B78DAB2544B1B7C9A4204D1534800F0ACF9514B3B619A
:401A40003B691B78DBB2002B00F087813B691B78DBB29AB2474B1A80464A3B695360FFF729FD0346FB7578E101F06EF90346FB7573E1FB7903F00303002B20D0022B00D044
:401A800030E03C4B02221A80394B1B79DBB203F07F023D4913465B0013449B000B4402331B78DAB2394B1A70384B00225A70314B364A5A60FFF7FEFC0346FB7512E02D4BA3
:401AC00002221A80324B1B78DAB2304B1A702F4B00225A70274B2D4A5A60FFF7EBFC0346FB7500BF40E1234B01221A80214B294A5A60FFF7DFFC0346FB7535E11D4B012219
:401B00001A801B4B1B79DBB21A46234B1344194A5360FFF7CFFC0346FB7525E1144B5B78DBB2013B0A2B00F21A8101A252F823F03B1C00005F1D0000C91C00005F1D0000D8
:401B40005D1B00005F1D00005F1D00005F1D0000A11B00005F1D0000F71B0000044B9B78DAB20E4B1A70FFF7C1FD0346FB75FBE000600040F482FF1F603A0000683B0000A5
:401B8000083A00008483FF1F1083FF1FE481FF1F0D83FF1F0B83FF1F7C83FF1F0A83FF1F744B9B787B717B79002B06D07B79013BDBB2184600F0F6FCB8607B79002B02D0AF
:401BC000BB68002B03D17B79002B40F0CA806A4B1B78DBB27A799A4208D0674A7B791370664B01221A70012000F0DCF9FFF77EFD0346FB75B5E000F055FE0346002B00F0DC
:401C0000B2805C4B1B793B715A4B1B79DAB25C4B1A703B795B4AD35CDAB23B795A49CB5CDBB29A4204D0554B01221A7000F08CFBFFF75CFD0346FB7595E0FB7903F0030318
:401C4000012B20D0012B0CD3022B00D03BE0494B9B78DBB2002B31D100F078FD0346FB752CE0444B9B78DBB2012B29D1474B1B78DBB223F00203DAB2444B1A70FFF736FDAD
:401C80000346FB751CE03B4B1B79DBB2012B19D8384B9B78DBB2DB43DBB2364A1279D2B2114610463A4A125CD2B21340DAB2384B5A54FFF71BFD0346FB7503E000BF53E07F
:401CC00000BF51E000BF4FE0FB7903F00303012B20D0012B0CD3022B00D03BE0254B9B78DBB2002B31D100F0BDFC0346FB752CE0204B9B78DBB2012B29D1244B1B78DBB2EF
:401D000043F00203DAB2214B1A70FFF7EFFC0346FB751CE0174B1B79DBB2012B19D8154B9B78DBB2DB43DBB2124A1279D2B211461046174A125CD2B21340DAB2144B5A54B1
:401D4000FFF7D4FC0346FB7503E000BF0CE000BF0AE000BF08E000BF06E000BF04E000BF02E000BF00E000BFFB7D18461837BD4680BD00BF006000400B83FF1F0883FF1FA6
:401D80000083FF1FF082FF1F7C83FF1F0D83FF1F8083FF1FB0B58AB000AF7860324B07F114041D460FCD0FC42B682370002387F826307B68002B52D07B6822221A707B685F
:401DC000013303221A7007F10C03184600F076FE022387F827303EE097F827307A68134497F8262007F128010A4412F81C2C1209D2B207F128010A4412F8142C1A7097F8F8
:401E0000273001337A68134400221A7097F8273002337A68134497F8262007F128010A4412F81C2C02F00F0207F128010A4412F8142C1A7097F8273003337A68134400228B
:401E40001A7097F82630013387F8263097F82730043387F8273097F82730212BBCD900BF2837BD46B0BD00BFF439000090B482B000AF0123FB7180E0464AFB791B0113442A
:401E80000C221A70FA79444913465B0013449B000B4405331B78DBB2002B1CD0FA793E4913465B0013449B000B4404331B78DBB25BB2002B07DA394AFB791B011344023308
:401EC0000C221A700EE0354AFB791B011344023308221A7006E0314AFB791B011344023380221A702B48F979FA792B4C13465B0013449B00234406331B889BB2DAB20B01A7
:401F0000034406331A702348F979FA79224C13465B0013449B00234406331B889BB21B0A9BB2DAB20B01034407331A701948F979FA79194C13465B0013449B00234406339D
:401F40001B889BB2DAB20B01034404331A701148F979FA79104C13465B0013449B00234406331B889BB21B0A9BB2DAB20B01034405331A70FB790133FB71FB79082B7FF6BE
:401F80007BAF074BFF221A7000BF0837BD4690BC704700BF706000401083FF1FFC5F00400A60004080B58AB000AF0346FB7100237B84002387F8273050E097F82720B34941
:401FC00013465B0013449B000B4400221A7097F82720AE4913465B0013449B000B44023300221A7097F82720A84913465B0013449B000B44033300221A7097F82720A3493D
:4020000013465B0013449B000B44083300221A8097F827209D4913465B0013449B000B440A3300221A7097F82720984913465B0013449B000B44013300221A7097F82720B8
:40204000924913465B0013449B000B44053300221A7097F82730013387F8273097F82730082BAAD9FB79002B16D0002387F825300EE097F82530864A0021D15497F82530D8
:40208000844A0021D15497F82530013387F8253097F82530012BECD97F4B1B78DBB2002B00F04A810023FB767B4B1B78DBB2013BDBB2184600F076FA78617B695B683B615E
:4020C0003B6907331B7803F04003002B08D0734B1B78DBB243F00103DAB2704B1A7007E06E4B1B78DBB223F00103DAB26B4B1A707B6908337B617B691B7887F82730012341
:4021000087F82530B6E07B695B68FB61002387F82630A3E097F82520FB699B7803F07F039A4240F0938097F82520584913465B0013449B000B4408331B889AB2FB699B88BD
:402140009A420CD297F82520FB6998884F4913465B0013449B000B44083302461A80FB691B781A464A4B9B5CDAB2FB695B789A426CD197F82520FB699878444913465B005B
:4021800013449B000B44043302461A7097F82520FB69D8783D4913465B0013449B000B4402461A70FB69DB7803F00303FB73FB699B785BB2002B1CDA97F82520FB7B012BC7
:4021C00001D1072000E00D20304913465B0013449B000B44053302461A7097F825202B4913465B0013449B000B44013301221A701BE097F82520FB7B012B01D1052000E0FB
:402200000920224913465B0013449B000B44053302461A7097F825201C4913465B0013449B000B44013300221A70FB699B790A2B03D0FB699B79022B08D1FA7E97F82530A3
:402240001946F869FEF774FF0346FB76FB690833FB6197F82630013387F8263097F8262097F827309A42FFF455AF97F82530013387F8253097F82530082B7FF644AF7B69B6
:402280005B68FB61002387F8253020E01083FF1F7C83FF1FF082FF1F0B83FF1F0D83FF1FFB699B7803F07F02FB691878244913465B0013449B000B440A3302461A70FB699C
:4022C0000833FB6197F82530013387F8253097F8252097F827309A42E2D300F09DF90246184B1A6000237B84012387F827301DE097F82720124913465B0013449B000B4426
:4023000006337A8C1A8097F827200D4913465B0013449B000B4408331B889AB27B8C13447B8497F82730013387F8273097F82730082BDDD9FFF79AFD00BF2837BD4680BD72
:402340001083FF1F0483FF1F90B585B000AF8F4B1B78DBB2002B00F015818C4B1B78DBB2013BDBB2184600F01DF978607B6808337B607B681B78FB707B685B68BB60844BCD
:402380001B78BB700023FB73F7E0BB681B78BA789A4240F0EC80BB787E4AD35CDAB2BB685B789A4240F0E380BB689B7803F07F037B70BB68DB7803F003033B707A7876491B
:4023C00013465B0013449B000B44033300221A707A78BB689878704913465B0013449B000B44043302461A707A78BB68D8786A4913465B0013449B000B4402461A707A7859
:40240000BB689888644913465B0013449B000B44083302461A80BB689B785BB2002B1ADA7A783B78012B01D1072000E00D205A4913465B0013449B000B44053302461A70BF
:402440007A78554913465B0013449B000B44013301221A7019E07A783B78012B01D1052000E009204C4913465B0013449B000B44053302461A707A78474913465B0013440B
:402480009B000B44013300221A70444A7B781B011344023301221A70404879787A783E4C13465B0013449B00234408331B889BB21B0A9BB2DAB20B0103441A703748797804
:4024C0007A78354C13465B0013449B00234408331B889BB2DAB20B01034401331A70304879787A782C4C13465B0013449B00234406331B889BB2DAB20B01034406331A70E9
:40250000274879787A78244C13465B0013449B00234406331B889BB21B0A9BB2DAB20B01034407331A701E4879787A781A4C13465B0013449B00234406331B889BB2DAB21D
:402540000B01034404331A70154879787A78124C13465B0013449B00234406331B889BB21B0A9BB2DAB20B01034405331A70BB680833BB60FB7B0133FB73FA7BFB789A420B
:40258000FFF403AF00BF1437BD4690BD0B83FF1F0083FF1F7C83FF1F1083FF1FFC5F00407060004080B485B000AF0346FB710F4B1B78DBB20E4ADB0013445B68FB60FB6804
:4025C0001033FB60FB681B78FA799A4202D30023FB6005E0FB79DB00FA6813445B68FB60FB6818461437BD4680BC7047E982FF1F603B000080B400AF054B1B78DBB2054AD2
:40260000DB0013445B681846BD4680BC704700BFE982FF1F603B000080B584B000AF104B1B78DBB2013BDBB21846FFF7BBFFB860BB68002B0DD0BB685B681B79FB71FB7967
:402640000233DB00BA681344BB60BB685B68FB6001E00023FB60FB6818461037BD4680BD0B83FF1F80B582B000AF0023FB71344B1B79DBB203F07F03BB71BB79002B5AD0B3
:40268000BB79082B57D8BA79B9792E480B465B000B449B00034402331B78DBB243F00103D8B2284913465B0013449B000B44023302461A70BA79234913465B0013449B0004
:4026C0000B44033300221A70BA79B9791D480B465B000B449B00034401331B78DBB243F00203D8B2174913465B0013449B000B44013302461A70BA79124913465B001344F8
:402700009B000B4404331B78DBB25BB2002B07DA0D4ABB791B01134402338D221A7006E0094ABB791B011344023389221A70FEF7DDFF0346FB71FB7918460837BD4680BDB2
:40274000006000401083FF1FFC5F004080B582B000AF0023FB71504B1B79DBB203F07F03BB71BB79002B00F09280BB79082B00F28E80BA79B97949480B465B000B449B0017
:40278000034402331B78DBB223F00103D8B2434913465B0013449B000B44023302461A70BA793E4913465B0013449B000B44033300221A703A49BB793948BA7912010244FF
:4027C0001278D2B202F07F02D2B21B010B441A70BA79B97931480B465B000B449B00034401331B78DBB223F00203D8B22B4913465B0013449B000B44013302461A70BA798C
:40280000264913465B0013449B000B4404331B78DBB25BB2002B1BDABA79204913465B0013449B000B4401331B78DBB2012B07D11B4ABB791B01134402330C221A7022E0CC
:40284000174ABB791B01134402330D221A701AE0BA79124913465B0013449B000B4401331B78DBB2012B07D10D4ABB791B011344023308221A7006E0094ABB791B011344C6
:40288000023309221A70FEF731FF0346FB71FB7918460837BD4680BD006000401083FF1FFC5F004080B584B000AF0023FB73154B1B79BB73144B1B78DBB2013BDBB21846A6
:4028C000FFF770FEB860BB685B681B79FB71BA7BFB799A4202D9BB7B022B0ED8BB7BBA7B0A498A5CD1B20A4AD154BB7B054A9278D1B2064AD1540123FB73FB7B18461037F9
:40290000BD4680BD006000400B83FF1F7C83FF1FF082FF1F80B582B000AF0023FB710F4B1B78DBB25BB2002B12DA0C4B5B78DBB2012B00D00CE00A4B0A4A5A60094B1B7832
:402940009AB2074B1A80FEF7B5FD0346FB7100BFFB7918460837BD4680BD00BF00600040F482FF1F7C3B000080B400AF054B1B78DBB203F040039B09DBB21846BD4680BCB2
:40298000704700BF8F45004080B483B000AF134B7F221A70124B80221A707F23FB710CE0FB79DB0003F1804303F5F043FA79013AD2B21A70FB79013BFB71FB79002BEFD103
:4029C000FB79DB0003F1804303F5F04300221A7000BF0C37BD4680BC704700BF3181FF1F3081FF1F80B483B000AF0346FB7101BE00BF0C37BD4680BC704700BF80B582B0FC
:402A000000AF0346FB80FB88054A127802FB03F3184600F089F900BF0837BD4680BD00BF4081FF1F80B584B000AF03463960FB710F4B1B68FB60FB791F2B02D90020FFF7DB
:402A4000D1FFFB7903F01F0310339B00FA6813441B68BB60FB7903F01F0310339B00FA6813443A681A60BB6818461037BD4680BD08ED00E080B582B000AF03460A46FB7194
:402A80001346BB71BB79072B02D90020FFF7AAFFFB791F2B02D90020FFF7A4FFFB7903F01F0303F1604303F56443BA795201D2B21A7000BF0837BD4680BD00BF80B483B088
:402AC00000AF7860264B1B78DBB21A467B681A60244B1B78DBB21B027A6812681A437B681A60214B1B78DBB21B047A6812681A437B681A601D4B1B78DBB21B067A68126879
:402B00001A437B681A607B680433194A1278D2B21A60184B1B78DBB21A027B6804337968043109680A431A60134B1B78DBB21A047B6804337968043109680A431A600F4B71
:402B40001B78DBB21A067B6804337968043109680A431A6000BF0C37BD4680BC704700BF0301004904010049EC460040020100490101004900010049050100490601004969
:402B800080B500AF064B1B78002B04D100F00AF8034B01221A7000F063F800BF80BD00BFE681FF1F80B582B000AF284A274B1B78DBB243F00203DBB21370254B1B78DBB2E3
:402BC00023F07003FB71224AFB7943F01003DBB21370204A1F4B1B78DBB223F03003DBB213701C4A1B4B1B78DBB243F03003DBB21370184A174B1B78DBB223F00F03DBB26B
:402C00001370144A134B1B78DBB243F00F03DBB21370632000F048F8002000F055F8002000F062F80C4A0C4B1B78DBB243F00103DBB21370094A094B1B78DBB243F0010354
:402C4000DBB2137000BF0837BD4680BD004F0040024F00400B4F0040A3430040014F004080B400AF0D4A0D4B1B78DBB243F00103DBB213700A4A0A4B1B78DBB243F001039D
:402C8000DBB21370074A074B1B78DBB243F00103DBB2137000BFBD4680BC7047A3430040B3430040004F004080B483B000AF0346FB71044BFA7992B21A8000BF0C37BD46EA
:402CC00080BC7047044F004080B483B000AF0346FB71044BFA7992B21A8000BF0C37BD4680BC7047064F004080B483B000AF0346FB71044AFB79137000BF0C37BD4680BC05
:402D0000704700BF034F004080B483B000AF0346FB71044AFB79137000BF0C37BD4680BC704700BF7B6400400230800803D000BF01380046FCD17047EFF3108072B6704705
:402D400080F31088704700BF80B582B000AF0023BB711B4B1B78DBB203F00303012B02D0022B04D012E0164B1B79FB7111E0144B1B79DBB203F07F02124913465B00134451
:402D80009B000B440A331B78FB7102E00023FB7100BFFB79022B0ED80B4B1A68FB7913441B78022B04D1FEF73FF80346BB7102E00023BB7100BFBB7918460837BD4680BD5C
:402DC000006000401083FF1F0483FF1F014B1868704700BFA881FF1F0E4B70B51E460E4C0025E41AA410A54204D056F8253098470135F8E700F09EFF084B094C1E46E41A58
:402E0000A4100025A54204D056F8253098470135F8E770BD403D0000403D0000403D0000483D000010B5431E0A44914204D011F8014B03F8014FF8E710BD03460244934273
:402E400002D003F8011BFAE7704700000EB430B59CB01FAC4FF4017254F8045BADF814200290069000F026F80B4B03900B9300230F9314934FF6FF7307900848ADF8163027
:402E80002A46234602A90068019400F077F81CB0BDE8304003B07047A12E0000A881FF1F00207047034611F8012B03F8012B002AF9D17047034613F8012B002AFBD1181A02
:402EC000013870474B1C70B50E46144602D14FF0FF3070BD9389CDB223F020039381536B526883B1A36B9A4207DA23685A1E226003F8016C636801331FE0214600F01EFC82
:402F00000028F2D0E3E72169236851B1994208D213F8011C8D4204D1013B0132236062600CE0E36304F1440363630323A3632346226403F8466F236001236360284670BD8D
:402F400010B50C46496B69B104F14403994201D000F03CFC236C00206063636013B1E36B236010BD23694FF0FF30236000236360A38943F02003A38110BD00002DE9F04F9A
:402F8000DFF89C9207460D46CA46ADF5257D01930023469347939E4B0DF10C08A2939D4BDFF874B2CDF82081A3931478002C00F02781D9F8003023445B7803F0080303F081
:402FC000FF01F3B16B68002B10DD2B68DAF800001978014449780C0710D5479901330131479169682B6001396960EBE7A39B2946384600929847009A0028E6D0561C324601
:40300000D3E7252C02F1010652D14391459153782A2B02BF1023961C43930A2231783446A1F13003092B06F1010605D8459B02FB0313303B4593F1E70322774800F0B7FB6B
:4030400040B134460123CBEB000003FA00F0439B03434393661C2478672C16D8652C7FD2472C07D8452C7BD2002C00F0CB80252C1ED077E05B2C51D002D8582C3ED071E031
:40308000632C57D0642C3FD06CE0702C32D007D86E2C55D03AD8692C64D1002344933BE0752C31D0782C29D0732C5BD102233FE06B68002B0DDD2B681A78944240F0A080C1
:4030C00001336A682B60479B013A01336A60479395E7A39B2946384698470028EBD04698002800F08F80AB8913F0400F18BF4FF0FF3089E0439B43F020034393439B43F489
:4031000000734393102302E00A2300E008236E2C449301DD04230BE0032309E03146404600F0D8F90646439B43F040034393012349931BE0439B43F0400343930023F7E72F
:40314000439AD0063FF55BAF12F0010F019A479B02F104010191126814BF138013604EE70523E5E7032349930A2344936B68002B03DD439B590611D518E0A39B294638469F
:4031800098470028F5D0AAE7479A013247926A68013A002A6A6013DD01332B602B68DAF800101A780A4452781207EDD4499B022B0DDC01AB2A4643A9384600F033F819E088
:4031C000A39B2946384698470028E7D087E7042B06DC01AB2A4643A9384600F089F809E00E4B002B3FF40BAF01AB2A4643A93846AFF30080012803D002287FF400AF6EE7D1
:40320000469801E04FF0FF300DF5257DBDE8F08FC52E0000412F0000A63B000000000000AC81FF1F2DE9F84315468A6880460C4632B98A69002A0CBF01224FF0FF328A6004
:403240002268DFF8A890D10658BF1A684FF000065EBF111D19601768A069F8B923680136DA065EBF2B681B783B702A686B6802F101022A60A26803F1FF3302F1FF326B606F
:4032800058BF0137A260E2B1002BE5DCD4F880312946404698470028DED012E0012806D12B681A7863699B5C002BD7D119E0022807D12B68D9F800201B7813445B781B070C
:4032C000CCD5236813F0100305D1E2680132E260A26902B13B70236900201E442661BDE8F883002EEDD1BDE8F88300BFAC81FF1F2DE9F04F0C469A46724B87B08346164623
:4033000093E8070003ABA76883E807006E4BA1696E4A04F11C09032918BF1A467B1EB3F5AE7F84BF40F25D13A360236888BF6FF4AE7543F4506323604B4600928CBF7F19C3
:4033400000274FF000083168019303AB53F828000222097800F02BFA019B002833D0B8F1010F0BD162682AB908226260226842F400722260226822F4A0620CE0B8F1020FE6
:403380000AD1226802F4C061B1F5007F1BD11021616042F480722260A268511EA16092B132685D1C511C316012781A707368013B002B736006DCD4F880313146584698479A
:4033C000002841D12B4608F10108B8F1030FBAD162680AB90A22626062683D496069891A019300F077F8019B4FF000081D46A36863B3316860690A78805C38B3302A2268BA
:4034000008D1100506D508F1010857B10133013FA36006E022F4106222600B78013505F8013C7368013B002B736003DD33680133336005E0D4F8803131465846984728B9D1
:40344000A368013BA360D2E74FF000082368D9050CD54D4508D915F8011C6F1ED4F87C313246584698473D464D4527D0226812F010021BD12A70636849465846009EB04763
:403480002268DAF8003012F0200F07D1D20705D51A1DCAF800201B68188004E01A1DCAF800201B681860E3680133E3602369C9EB050545441D442561002000E0012007B044
:4034C000BDE8F08FAC3B00004136000035350000C83B000070B50B78441E5E2B13BF4A1C8A1C4B78002108BF012100F1FF0504F8011FAC42FBD10BB9501E70BD81F00104FF
:403500001146C4540D784A1C2D2D06D05D2D0FD00DB12B46F4E7084670BD4E785D2EF8D0B342F6DC023101339E42C454FBDCE9E7104670BD2DE9F0470F4680463F48D0F8F3
:4035400000903D4615F8014B09EB0400407800F0080000F0FF0608B12F46F2E72D2C03D1BD1C7C78012603E02B2C04BF7C78BD1C13B1102B0AD15BE0302C57D1287800F027
:40358000DF0058284DD16C7810230235002E14BF4FF0004C6FF0004CBCFBF3FA0027384603FB1ACC09EB040E9EF801E01EF0040F01D0303C0BE01EF0030E1BD0BEF1010F4D
:4035C0000CBF4FF0370E4FF0570ECEEB0404A34210DDB7F1FF3F0AD0504506D801D1644503DC03FB0040012701E04FF0FF3715F8014BD7E77B1C0CD1002E4FF0220314BF0C
:403600004FF000406FF00040C8F800302AB9BDE8F08706B1404272B107B1691E1160BDE8F0873024002BB1D10823AFE70A23ADE7302CA3D0AAE7BDE8F08700BFAC81FF1F4C
:403640002DE9F0470E4680463B48D0F80090354615F8014B09EB0400407800F0080000F0FF0708B12E46F2E72D2C03D1B51C7478012703E02B2C04BF7478B51C13B1102BC5
:403680000AD153E0302C4FD1287800F0DF00582845D16C78102302354FF0FF3CBCFBF3FC03FB0CFA00266FEA0A0A304609EB040E9EF801E01EF0040F01D0303C0BE01EF02C
:4036C000030E1AD0BEF1010F0CBF4FF0370E4FF0570ECEEB0404A3420FDD002E08DB604506D801D1544503DC03FB0040012601E04FF0FF3615F8014BD8E7002E07DA222387
:40370000C8F800304FF0FF302AB9BDE8F08707B1404272B106B1691E1160BDE8F0873024002BB9D10823B7E70A23B5E7302CABD0B2E7BDE8F08700BFAC81FF1F2DE9F0418C
:403740000C46496B04F1440399421AD14FF4806100F088F818B94FF0FF30BDE8F0814FF48063A36394F84630606380F8FF3394F8453000F2FD30437094F8443003702060F7
:4037800012E0A66B77003A4600F0CAF805460028E1D000EB0608014632464046FFF742FBC4F800806563A7630020BDE8F08110B5C9B202449042034605D01C7801308C427B
:4037C000F8D1184610BD002010BD000038B50546002944D051F8043C0C1F002BB8BFE41800F0D4F81E4A1368114613B96360146030E0A3420DD92268A018834201BF186806
:403800005B681218226063600C6023E0A24203D813465A68002AF9D118681918A1420BD12168014458188242196013D110685268014419605A600DE002D90C232B6009E035
:4038400021686018824201BF106852680918216062605C602846BDE8384000F098B838BDEC81FF1F70B5CD1C25F0030508350C2D38BF0C25002D064601DBA94202D90C2313
:40388000336046E000F082F8234B1C681A462146A1B10B685B1B0ED40B2B03D90B60CC18CD501EE08C420BBF63684B681360636018BF0C4615E00C464968E9E7174C236868
:4038C0001BB9304600F052F820602946304600F04DF8431C18D0C41C24F00304A0420DD12560304600F053F804F10B00231D20F00700C31A0ED05A42E25070BD211A3046B4
:4039000000F034F80130EBD10C233360304600F03EF8002070BD00BFEC81FF1FE881FF1FF8B5074615460E4621B91146BDE8F840FFF798BF1AB9FFF749FF2846F8BD00F0DA
:4039400027F885420ED929463846FFF78BFF044650B131462A46FFF765FA31463846FFF735FF01E03046F8BD2046F8BD38B5064C0023054608462360FCF7AAFE431C02D1F5
:40398000236803B12B6038BDA883FF1F7047704751F8040C0028BEBF091851F8043CC01804387047000000007020256400000000004F004024004051004030000000014010
:4039C000000C800C0140800300140140000800400140000A004C01400002105001401000000C0140200F0048800000500140A00F00481000303132333435363738394142D7
:403A000043444546000000001201000202000008B40432F2010001028001000009024300020101C032090400000102020103052400100104240202052406000105240100DA
:403A4000010705810308000A09040100020A000004070582024000000705030240000000040309042C0343007900700072006500730073002000530065006D006900630027
:403A80006F006E0064007500630074006F007200100355005300420055004100520054003803430044004300200043006F006D006D0075006E0069006300610074006900C1
:403AC0006F006E00200049006E007400650072006600610063006500260343004400430020004400610074006100200049006E0074006500720066006100630065000000FA
:403B00000203000000008103080002000100820240000A000100030240000A00020A0000010000001C3A000003000000043B0000000000000000000000000000000000002E
:403B4000000000001C3B000001000000083A0000000000000000000001000000203B000001000000483B000012034D005300460054003100300030000100000028000000C2
:403B80000001040001000000000000000001435955534200000030303030310000000000000000004300686C4C000000CA3B0000CD3B0000D03B0000412D46612D663839F3
:403BC00030313233343536375D002B2D00303000785800002020202020202020202828282828202020202020202020202020202020202020881010101010101010101010E4
:403C0000101010100404040404040404040410101010101010414141414141010101010101010101010101010101010101010110101010101042424242424202020202021C
:403C400002020202020202020202020202020210101010200000000000000000000000000000000000000000000000000000000000000000000000000000000000000000C6
:403C80000000000000000000000000000000000000000000000000000000000000000000000000000000000000000000000000000000000000000000000000000000000004
:403CC00000000000000000000000000000000000000000000000000000000000000000000000000000000000000000000000000000000000000000000000000000000000C4
:403D000000000000000000000000000000000000000000000000000000000000000000000000000000000000000000000000000000000000F8B500BFF8BC08BC9E46704704
:403D40004D000000B9070000F8B500BFF8BC08BC9E46704729000000683D0000C880FF1FE800000000020000000000000A000000435333303120323031360A000000000072
:403D8000000000000000000000000000000000000000000000000000000000000000000000000000000000000000000000000000B083FF1F00C2010000000800C201000024
:403DC00000080000A12000000000020000000000807F0000030000000087930360EA00003C0000000000307500000000D43C0000F43C0000143D000000000000000000001D
:403E00000000000000000000A43B000000000000000000000000000000000000000000000000000000000000000000000000000000000000000000000000000000000000A3
:403E400000000000000000004881FF1FD33B00000000000000000000000000000000000000000000000000000000000000000000000000000000000000000000000000004D
:403E80000000000000000000000000000000000000000000000000000000000000000000000000000000000000000000000000000000000000000000000000000000000002
:403EC00000000000000000000000000000000000000000000000000000000000000000000000000000000000000000000000000000000000000000000000000000000000C2
:403F00000000000000000000000000000000000000000000000000000000000000000000000000000000000000000000000000000000000000000000000000000000000081
:403F40000000000000000000000000000000000000000000000000000000000000000000000000000000000000000000000000000000000000000000000000000000000041
:020000040003F7
:0200000480007A
:4000000001450040064F00400A520040015B004006640040026500404B00014036010140330201404703014044040140540501405F060140540701403D0801405A09014088
:400040003A0A01405A0B01401A0C0140510D01403D0E0140340F01404C1401404E150140411601404617014040180140491901402F1A01404D1B01400E400140174101402D
:4000800013420140154301400B450140084601400D4701400E4801400E490140124C0140094D014005500140035101407E0201400A4B0D40164B1930224B006001A00850F9
:4000C0000990110818381928601861147C402F84800F8272846F89078A0F8C38856F860F00100220030406C008050A0A0C0F0F01100C12031423161C18071C801D021E4058
:40010000200A2102220524C028102A202C102E202F08300F310132303304348035023640370839203A083E50540F580459045B045F01840185968768880489FE8A188B01A6
:400140009004910E920893F09401970199C59A019B3A9C049E08A009A204A401A5A3A75CA97FAA02B010B3FFB403B60CBA80BF04D804D904DF01000A020403020620070414
:4001800008900A600D020E200F09128A130415041721182019901A201B021D021E0A200A2141220A272029012B012C042D042F18308036353701380439823A043C203D083F
:4001C0003E203F08580459905A01841085808B028C04C06FC2FFC47FCA69CCE8CE69D60FE2080007031004400620080F090A0C200E400F011106140A160517011A801C038B
:400200001D0C1E0C202021012250240C260328052A0A2C202D0C2E403010320F3301346035103680370E39803A203F0456025712580459045B045D205F01D608D804D904BE
:40024000DB04DC11DD90DF01014003200454074008480E2A10201105132014101502160A1C741F802588270528082B242E402F8030603684370139613B023E813F115A8020
:400280005E0463026C046D806F10762477028202884089048B128C088F1090209204940C964097259C809D019F06A215A302A490A584A6A0A729AC10AE05B720C0F5C2E597
:4002C000C4FECA96CCDCCEBDD648D808E202E606E810EA02EE04043006C907060A0F0CFD0E0210CF1230150819021C731D08209E21082260230128942A603102330834FF42
:400300003504370139083E103F055280540F580459045B045F058401853087C9880C89FD8B028C108F0F919493609406980C999E9B609E10A220A40AA5CFA730A973AA01A5
:40034000AE01B001B20EB410B5FFB620B808BE11BF10D608D804D904DB04DD90DF01000401200204030204800510072009800A400C900E2011101280166417401A081C405F
:400380001E251F08214022102394270829012C102F1830803210330835103621382839103CA03D083E285A065B905F406124664072807A1084088D408E40902491209340C4
:4003C000954096C1972698409B019C909D019E88A010A188A201A302A480A504A6A0A72CAB49AD40AF40B111B320B624C0E7C2E9C4FACA61CCAECE72D61FD816DE02E010C2
:40040000E608E812EC04010704B70640070F08C10A12110813011477171018C0190C1A241B021C011EF222072320250C260827012884290B2A102B04300F312034F0350F48
:4004400037104036410449FF4AFF4BFF4DA04F015018580459045A045F016040628064406540668068406A806C406D206E8080C18212848486108A078CB78E4090C09224FE
:400480009A089C77A801AAF2B0F0B40FC036C104C52EC6C3C704C81FC9FFCAFFCBFFCDAFCE07CF01D018D804D904DA04DC10DF01E040E280E440E540E680E840EA80EC4040
:4004C000ED20EE8000040120028003020620070409800A480E26111014801608170819221A401C801D021E041F10248025402620270428402B242C802E202F10301034081C
:40050000362139203B823D083E02410A4480450A49054B104F1050845120841087408A018D018F10906491309208931094889642972298489A289B099C809D259F70A18810
:40054000A211A302A4C0A524A6A0A724B320B540C06FC2EBC472CAE7CCE4CECDD0C3D224E001E208E408E601EA4AEE010410080209040E08150116021B031E0820102801B9
:400580002E042F04300832063302341035013601370438203E513F40520353025804590C5B045C195D105F018A018E0194019A019C01A001AA01B601C001C704C9FFCA07C4
:4005C000CBFFCC40CD20CEF0CF05D008D602D735D804D904DA04DB0CDC11DD12DF01E040E1A8E240E3200040012004080601070808200A010B200E200F0210041101131079
:40060000148215101B401C041E221F0125202604270A282029302B802C222F1030043614384239013B203D20414048044B10518052085A10600469086B456C046D406E10E4
:400640007010720279407D408203851087108B028C82918092019520971298029A899C289D119E40A110A381A424A580A608A880AA01AB10AE02B3A0B401B510C0E3C2A72E
:40068000C4DACA17CC62CE2DD008D604D804DE18E220E440E880EA48EC10042605700651070C09140A020F031050122315101626195C1B021E511F2021802240285029092B
:4006C0002A252B102C082D6C2F113040311F3208338034333607376039803AA03E053F4454015604580459045B045C225D205F0181018B018D0195019901A101AB01B7012E
:40070000D608D804D904DB04DC11DD90DF0100800209032005100612080509800E010F1010A01254134814201540162019401A601B202140220423402402280529412A80DB
:400740002B042E212F80301031803208332035103708380839203A0C3B403D403E023F1059015A485B105C405F206202652067016E806F02821084018D10904891409703BB
:4007800098029A029C3D9D309E40A041A201A305A424A580A640A702AA02AE04B020B220B440B540B7D0C0E6C2ADC4ABCAADCC6ECEBED63FD831E240E404E810EA20EC5040
:4007C000EE20840D8630900D921098289A119C029E149F01A00CA210AA20AB02B203B43CB502B701B808BA20D608D804D904DB04DC02DD90DF010004050506080811098028
:400800000D600E201004124015041711180C1B041CA01D261E092002222024022619270528082F0A328035A036083C203D803E043F21452247044C014F2257205B405E014E
:40084000628067868008860188248DC08E1091049202930496209781980299019A089C209DB09E029F91A140A308A434A644A730AD08B010B201B480B540C074C2EBC47A31
:40088000CA34CC78CED0D0E0D230D688D8B8E040E2A2E440E850EE0406010C0114011801200124012A013601580459045C115F018010810483118430858088088B408C3CD1
:4008C0008D038EC18F0C90049180920894FF958098CF99089A309B229C049D159F2AA180A283A420A740A83CA90FAAC2AD0FAE0CB0B0B130B240B380B43FB540B70FB808AA
:40090000BA22BF14D608D804D904DB04DC22DD90DF01000C014004400520079008200A200E880F211028110112101504160817411A021C401D011E142548274828202910C2
:400940002D802E012F28321035213644380439413A123D803E1C3F01480849105C805F0C6402874089048F08C0F5C2F6C4FECAF6CCF4CEFFD610D810E0304052410649FF1D
:400980004AFF4BFF4DA04F0150185608580459045A045B045C115D905F016040628064406540668068406A806C406D206E80810489049008910499019E01A002A402A60C95
:4009C000AF03B004B201B302B408B504B602B701B880B920BE10BF50C053C106C52CC630C74EC83BC9FFCAFFCBFFCDAFCE07CF01D018D40FD804D904DA04DB04DF05E040BC
:400A0000E280E440E540E680E840EA80EC40ED20EE80002001400328082109010B020E400F0210041110150116201E641F8024042640272828302B082F023001332036024A
:400A4000372139503B023E203F01400443C0470849604B404D214F455628570259805E865F106302660867047E0280208180861089118B1091409302950199609B019C1480
:400A80009F60A010A101A201A320A901AE04AF01C007C29BC432CA16CCA5CEADD044D23CD6F8D868DE10E202E408E624EE010002010D03100404071D08040D200FC011201E
:400AC0001340152017401B021D111F0821112203230425012608270429402B202D1C2E043001318032043360340835033602371D3B083E44540F580459045B045F01859613
:400B00008768890E8BF0917F970198019DC59F3AA1A3A35CAA01ADFEAE01AF01B5FFB601BE40BF10D280D804D904DB04DC01DF0100200140032005210720080409210B024D
:400B40001010112013401501174419401D211E22222025142682270429022B032C012D022E202F10300132803305340836A238243B203C043D803F03450446205C405E2407
:400B80005F017340830187208D408F0490649702980899229B019C109F60A010A140A302A504A680A724B212C077C20FC4B7CAF9CCFBCED6D6F0E010E62CEE420001040125
:400BC00008010B010E010F011501160118011B011D01210125012C0131013601580459045C115F0183018508860289018F08918092019340952097109A049B029D04A102D1
:400C0000A510A720A940AB80AF04B1FFB204B401B602BF01C021C104C5E0C6BCC80EC9FFCAFFCBFFCEF0CF44D00CD804D904DA04DC01DD02DF01E6C0EA40EB0200400120E2
:400C400002100442051408010A2A0C200F1010101201131014021601180219341A021B801F4021022480283229542A022C202F803021321433453554386239083A103C407D
:400C80003F1041804288490151105240800185408B048C409020914892409442952097109A8A9B459C289D119E40A180A202A420AB40B520B640C0F7C26FC487CACFCC7F45
:400CC000CE3FD00DE010E240E620E804EE420161020107080B010D681310176019401B201F0423022562260229402B202D642E04300231203204331F3540360139083F040A
:400D0000580459045C115F01800188018E0191019601A601A801AC01B001B301BF04D401D804D904DB0CDC11DD10DF010040021003400442051008310B110F101104120587
:400D400014211604184019481A301D01220823742508280129582A172C102D012E1030103102320833403540360637203862390D3B013C405E406F097D408111820484084B
:400D80008508870889088B01902291489240944096209754982099109A029B409C089D40A102A202A904AF40B340B440C0DDC22FC4E7CAEFCCFFCE1FD610DE10E004E28041
:400DC000E402E620EC021302168030803202340436403A203B023E808620C430CCF0CE70E210000807403020330237805C02630866108482860287029C04A480A642AB01C8
:400E0000B702C030CC70D680D8C0E240E640EE201380510859045C0262208F409C049E109F80A4A0A640A704AC04B740C440D420D6C0D840EC4019021D0881088201850203
:400E40009E109F40A480A508A640A802A904AA20AC24B704C630E080E410E680EA50EE8001400801201053018408A780AB80C002C208C802D4018301901097029801A40851
:400E8000A780B540EA020A010B400C088C1090109601A408A780AE01B001C20EE208EE040208074020108A108C1099029E109F40A201AE40B480C060C840EE405E025F2035
:400EC00065027780820887808B209902A209D6A0D880DE20E020E2401F80370253105B045F08610167108F029901A780A901AF40C601CC01D404D603D803E0087404830854
:400F000084049F08AF10B310B704DE04EC09100711011A031B011C0600AB01FF100A0000070018211F8000001600090000000063000000000900001C1900064202830004B5
:400F4000000019000400000006830008002100421600000F0770088000022808000000112506040003C0E0000AFFFFFF62A0F0410C00000018000400040404042222000170
:400F80000000000000004002001030100010101200000000000000000000000000000000070100000000000007010301060107010300000000E0E000001C1C001C00000033
:400FC0004000060000000000C0000000000B0B0000F4F4000800140A0A00080000000000007B7B003800000000010000000000000000000000000000000000000000000086
:4010000000000000000000000000000000000000000000000000000000000000000000000000000000000000000000000000000000000000000000000000000000000000B0
:401040000000000000000000000000000000000000000000000000000000000000000000000000000000000000000000000000000000000000000000000000000000000070
:401080000000000000000000000000000000000000000000000000000000000000000000000000000000000000000000000000000000000000000000000000000000000030
:4010C00000000000000000000000000000000000000000000000000000000000000000000000000000000000000000000000000000000000000000000000000000000000F0
:0200000490006A
:0400000000004005B7
:0200000490105A
:04000000BC90ACAF55
:0200000490303A
:02000000FA20E4
:0200000490402A
:4000000000000000000000000000000000000000000000000000000000000000000000000000000000000000000000000000000000000000000000000000000000000000C0
:400040000000000000000000000000000000000000000000000000000000000000000000000000000000000000000000000000000000000000000000000000000000000080
:400080000000000000000000000000000000000000000000000000000000000000000000000000000000000000000000000000000000000000000000000000000000000040
:4000C0000000000000000000000000000000000000000000000000000000000000000000000000000000000000000000000000000000000000000000000000000000000000
:0200000490501A
:0C00000000012E16106900012E310A8943
:00000001FF